:020000040800F2
:1000000000040020AB1300080519000807190008B8
:100010000B1900080F190008131900080000000050
:100020000000000000000000000000001719000898
:1000300019190008000000001B190008DF1A000849
:10004000CB130008CB130008CB1300088B1C00084F
:10005000CB130008CB130008CB130008CB13000808
:10006000CB130008CB130008CB130008CB130008F8
:10007000CB130008CB130008CB130008CB130008E8
:10008000CB130008CB130008CB130008CB130008D8
:10009000CB130008CB130008CB130008CB130008C8
:1000A000CB130008CB130008CB130008CB130008B8
:1000B000CB130008CB130008CB130008CB130008A8
:1000C000CB130008CB130008CB130008CB13000898
:1000D000CB130008631B0008CB130008C71B0008E4
:1000E000CB130008CB130008CB130008CB13000878
:1000F000CB130008CB130008CB130008CB13000868
:10010000CB130008CB130008CB130008CB13000857
:10011000151C00085D1C0008491B0008CB130008D3
:10012000CB130008CB130008CB130008CB13000837
:10013000DFF80CD007F012FC0048004793160008C7
:10014000F81C002010B50446C549601A8C422FD017
:1001500009DCC448201810D0B0F5806F16D0B0F577
:10016000006F4AD11BE0B0F5806F2AD0B0F5006F68
:1001700030D0B0F5406F40D135E00121042000F0CF
:10018000F6FA0021042000F0F2FA37E001210820FD
:1001900000F0EDFA0021082000F0E9FA2EE001213C
:1001A000102000F0E4FA0021102000F0E0FA25E031
:1001B0000121202000F0DBFA0021202000F0D7FAF6
:1001C0001CE00121402000F0D2FA0021402000F084
:1001D000CEFA13E00121802000F0C9FA002180202E
:1001E00000F0C5FA0AE00121080200F0C0FA00217F
:1001F0004FF4807000F0BBFA00E000BF00BF10BDFC
:1002000010B50121084600F0B2FA0021012000F0EB
:10021000AEFA10BD2DE9F04102460025002600206F
:1002200000230024002791F803C00CF00F0591F87B
:1002300003C01CF0100F03D091F802C04CEA050572
:10024000B1F800C01CF0FF0F31D0146800202BE083
:100250004FF0010C0CFA00F3B1F800C00CEA0306F1
:100260009E4220D183004FF00F0C0CFA03F7BC43E1
:1002700005FA03FC4CEA040491F803C0BCF1280F12
:1002800006D14FF0010C0CFA00FCC2F814C00AE0D1
:1002900091F803C0BCF1480F05D14FF0010C0CFAE6
:1002A00000FCC2F810C0401C0828D1D31460B1F87B
:1002B00000C0BCF1FF0F34DD546800202EE000F1D7
:1002C000080C4FF0010808FA0CF3B1F800C00CEA72
:1002D00003069E4221D183004FF00F0C0CFA03F766
:1002E000BC4305FA03FC4CEA040491F803C0BCF1DA
:1002F000280F05D100F1080C08FA0CF8C2F8148098
:1003000091F803C0BCF1480F07D100F1080C4FF081
:10031000010808FA0CF8C2F81080401C0828CED357
:100320005460BDE8F0814FF6FF71018002218170B9
:100330000421C17070470246002093680B4201D02F
:10034000012000E0002070470146886880B27047B5
:1003500002460020D3680B4201D0012000E00020BB
:1003600070470146C86880B27047016170474161BB
:1003700070470AB1016100E041617047C160704798
:100380004FF480320A4382618161826182698269AD
:10039000704702460020344B18684FF680731840AF
:1003A00040EA02100843304B186070472F49C8617B
:1003B0007047F0B50A4600230024002100252A4E8C
:1003C0007168C0F3034583B200F44016B6F5401FD0
:1003D00008D121F07061244E766826F07066224FB5
:1003E0007E6012E000F48016B6F5801F06D1032669
:1003F00006FA05F4A14341F0706106E0460D3601AE
:1004000003FA06F6B14341F0706122B1460D3601A0
:1004100003FA06F63143144E7160F0BD30B5002288
:100420008B071C0F0F2303FA04F20F4B08338C10B9
:1004300053F8243093430C4C08348D1044F8253085
:1004400023468C1053F824308C07240F00FA04F450
:100450002343054C08348D1044F8253030BD00008E
:100460000014014000F8FEBF0000014000002042DF
:10047000DA48006840F00100D84908600846406842
:10048000D7490840D549486008460068D549084022
:10049000D24908600846006820F4802008600846B9
:1004A000406820F4FE004860002088607047CB4917
:1004B000096821F48031C94A11601146096821F4A4
:1004C00080211160B0F5803F03D0B0F5802F0ED1B0
:1004D00006E0C249096841F48031C04A116007E072
:1004E000BE49096841F4A021BC4A116000E000BF88
:1004F00000BF704710B501460022002300204A11BA
:10050000012A02D1B54C236806E0022A02D1B34C7D
:10051000236A01E0B14C636A01F01F020124944098
:100520001C4201D0012000E0002010BD70B5002465
:100530000025002600BF3120FFF7DCFF0646641CC3
:1005400016B9B4F5A06FF6D13120FFF7D3FF08B18B
:10055000012500E00025284670BD014600209F4A85
:10056000106820F0F80040EAC100106070479E4912
:100570000860704702460020984B586820F47C10B1
:1005800042EA01031843954B586070479649086644
:10059000704701460020914A506820F0030008434C
:1005A000506070478D48406800F00C00704701466D
:1005B00000208A4A506820F0F000084350607047DD
:1005C00001460020854A506820F4E06008435060EE
:1005D000704701460020814A506820F4605040EA8C
:1005E000C1005060704729B17C4A527A02437B4B6C
:1005F0005A7206E0794A527AC343DBB21A40774B0B
:100600005A72704779490860704701460020734A62
:10061000506820F440400843506070470021744AFD
:1006200011706E4A82F82010012802D0042808D1E7
:1006300003E001216E4A117004E005216C4A11703B
:1006400000E000BF00BF70476A4908607047634917
:10065000096A0143614A116270476749086070473F
:1006600030B500210022002400235C4D6D6805F0A8
:100670000C0121B1042905D0082923D105E05F4DE3
:10068000056022E05D4D05601FE0544D6D6805F486
:100690007012022505EB9242504D6D6805F48034CE
:1006A0001CB9574D554305600BE04C4D6D6815F472
:1006B000003F03D0524D5543056002E04F4D554376
:1006C000056002E04D4D056000BF00BF434D6D6801
:1006D00005F0F00109094B4D6B5C0568DD40456094
:1006E0003E4D6D6805F4E061090A464D6B5C456856
:1006F000DD408560394D6D6805F46051C90A414D92
:100700006B5C4568DD40C560344D6D6805F4404163
:10071000890B3D4D6B5CC568B5FBF3F5056130BDDC
:1007200029B12E4A526902432C4B5A6104E02B4AEC
:1007300052698243294B5A61704729B1274A92690D
:100740000243264B9A6104E0244A92698243234B78
:100750009A61704729B1214AD26902431F4BDA617D
:1007600004E01E4AD26982431C4BDA61704729B10A
:100770001A4AD2680243194BDA6004E0174AD26879
:100780008243164BDA60704729B1144A126902435A
:10079000124B1A6104E0114A126982430F4B1A612D
:1007A00070471A49086070470F49C86470470B4981
:1007B000C87170470948406A40F080700749486234
:1007C000704701460020054A92680A4201D0012084
:1007D00000E0002070470149887270470010024015
:1007E0000000FFF8FFFFF6FE00004242D800424240
:1007F00020100240800442423C04424200127A002F
:1008000000093D000000002010000020400442428A
:1008100036490143364A1160704770B50021002304
:100820000F22C4784CB3324C246804F4E064C4F55D
:10083000E0644FEA1421C1F1040322FA01F2447882
:1008400004FA03F1847804EA020444EA01014FEA5D
:100850000111284C0678A155047804F01F054FF0CB
:10086000010404FA05F405784FEA65154FF0E02617
:1008700006EB8505C5F8004109E0047804F01F0582
:100880000124AC401C4D0678761145F8264070BD19
:100890001A4A0A4002431A4B1A60704741B1194A7A
:1008A000126842EA00024FF0E023C3F8102D07E07F
:1008B000144A126822EA00024FF0E023C3F8102D18
:1008C0007047042808D14FF0E021096941F0040184
:1008D0004FF0E022116107E04FF0E021096921F0BB
:1008E00004014FF0E0221161704700000000FA059A
:1008F0000CED00E000E400E080E100E080FFFF1F7D
:1009000008ED00E010ED00E010B50446D949601A8A
:100910008C422BD006DCD848201813D0B0F5806F5D
:1009200038D119E0B0F5806F2AD0B0F56C4F31D1D5
:1009300001218803FFF71BFF00214FF48040FFF7E0
:1009400016FF28E001214804FFF71EFF00214FF4A5
:100950000030FFF719FF1EE001218804FFF714FFA4
:1009600000214FF48020FFF70FFF14E00121C8049D
:10097000FFF70AFF00214FF40020FFF705FF0AE010
:1009800001210805FFF700FF00214FF48010FFF759
:10099000FBFE00E000BF00BF10BD2DE9F04786B0B0
:1009A00005460E460024A24600BF00BF00272F4682
:1009B0002C8A4CF6FF700440F08804432C82AC89EA
:1009C0004EF6F3100440B08831890843718908431A
:1009D0000443AC81AC8A4FF6FF400440B089044325
:1009E000AC8201A8FFF73CFEA448874202D1DDF8A3
:1009F00010A001E0DDF80CA00AEBCA0000EB0A1021
:100A000031688900B0FBF1F86420B8FBF0F0040114
:100A10002009642101FB1089322000EB0910B0FB92
:100A2000F1F000F00F0004432C8106B0BDE8F08720
:100A30004FF41651016000218180C18001810C2199
:100A4000418100218181704710B502460020108A43
:100A50004FF2FF0318400B884C8823438C882343B4
:100A6000CC8823431843108210BD002101804180AF
:100A70008180C180704721B1828942F40052828115
:100A800004E082894DF6FF731A4082817047F0B509
:100A9000034600240026002500201846C1F3421416
:100AA00001F01F06012707FA06F5012C01D10C30D1
:100AB00004E0022C01D1103000E014301AB10768B4
:100AC0002F43076002E00768AF430760F0BD10B531
:100AD0001AB1838A0B43838204E0838ACC43A4B295
:100AE0002340838210BD028A4FF6F0731A400282BF
:100AF000028A0A430282704782894FF2FF731A40CA
:100B0000828182890A438281704721B1828942F0C1
:100B10000202828104E082894FF6FD731A408281CD
:100B20007047028A4FF6DF731A400282028A0A4334
:100B30000282704721B1028A42F48042028204E0BC
:100B4000028A4BF6FF731A4002827047C1F3080213
:100B50008280704701468888C0F308007047818909
:100B600041F0010181817047028BD2B20283028B76
:100B700042EA012202837047028B02F47F42028321
:100B8000028B0A430283704721B1828A42F020021D
:100B9000828204E0828A4FF6DF731A4082827047B5
:100BA00021B1828A42F01002828204E0828A4FF6EA
:100BB000EF731A408282704721B1828A42F00802A4
:100BC000828204E0828A4FF6F7731A40828270476D
:100BD000828A4FF6FB731A408282828A0A4382829B
:100BE000704721B1828A42F00202828204E0828A46
:100BF0004FF6FD731A408282704702460020138828
:100C00000B4201D0012000E000207047CA4302805F
:100C1000704770B502460B460024002100250020D5
:100C2000C3F3421503F01F01012606FA01F1012D5D
:100C300002D19689314006E0022D02D1168A314058
:100C400001E0968A31401C12012606FA04F4168847
:100C5000344011B10CB1012000E0002070BD10B58E
:100C6000002200230A1201249440A3B2DC43048032
:100C700010BD0000004C004000BCFFBF0038014028
:100C800039B1554A128842EA0002544BA3F80028B1
:100C900009E0514A12886FEA00039BB202EA03029C
:100CA0004E4BA3F8002870474D48008840F01000D4
:100CB0004A49A1F804087047494800884FF6EF7187
:100CC00000EA01004549A1F80408704700214548A1
:100CD00001884248B0F8180841EA0040704700B562
:100CE0000246FFF7E1FF100C3F4908803B49A1F89D
:100CF0001C28FFF7E1FF00BD00B50246FFF7D4FF57
:100D0000C2F30340394908803449A1F80C28FFF7A1
:100D1000D3FF00BD00B50246FFF7C6FF100C3449F3
:100D200008802E49A1F82428FFF7C6FF00BD002047
:100D3000304909884FEA01714FEA11302749B1F86B
:100D4000141841EA0000704700BF2548008810F0E1
:100D5000200FFAD07047224800884FF6F77100EA5A
:100D600001001E49A1F8040800BF1D48008810F0CA
:100D7000080FFAD0704701460020194A12880A422B
:100D800001D0012000E000207047154909886FEA72
:100D9000000292B201EA0201104AA2F80418704758
:100DA000014600200E4A128802EA0102D0B20B4A24
:100DB000B2F800280A4202D008B1012000E0002069
:100DC0007047074909886FEA000292B201EA0201FE
:100DD000024AA2F804187047002800400020004092
:100DE000042800401C280040182800400828004023
:100DF000202800401028004010B501210807FFF707
:100E0000C3FC00214FF08050FFF7BEFC10BD284905
:100E10000862704726490861704701460020254A4C
:100E2000106820F0E0000843106070472249086015
:100E3000704710B5024600201E4B186820F00300D2
:100E4000104318601D4B1B6843F004034FF0E0246F
:100E5000C4F8103D012901D130BF00E020BF10BD12
:100E60001448006840F00400124908600846006811
:100E700040F0020008601148006840F004004FF0A4
:100E8000E021C1F8100D00BF00BF30BF7047014620
:100E90000020084A52680A4201D0012000E00020E8
:100EA00070470449096841EA8001024A11607047AD
:100EB00000000E4200700040A0000E4210ED00E065
:100EC00010B50120FFF76DFC0020FFF76AFC10BD94
:100ED0002349086070472349086070472249086029
:100EE000704701460020214A10884FF67F4200EAF1
:100EF000020040EA01001E4AA2F82C0C704701468D
:100F000000201A4A10884FF6807200EA020040EA78
:100F10000100174AA2F82C0C7047154A0244A2F8A7
:100F2000001C7047014612480844B0F8000C704796
:100F300010480068C0B270470F48008840F00100B8
:100F40000B49A1F8340C70470C480068C0B27047D8
:100F50000948008840F002000549A1F8340C7047A8
:100F600004860D4200860D4288860D422C6C00409E
:100F700000600040A0860D42346C0040A4860D4203
:100F800010B50446BE4820180FD0B0F5806F16D0BB
:100F9000B0F5784F1DD101210803FFF7E8FB0021D0
:100FA0004FF48050FFF7E3FB14E001218803FFF7C3
:100FB000EBFB00214FF48040FFF7E6FB0AE0012144
:100FC000C803FFF7E1FB00214FF40040FFF7DCFB13
:100FD00000E000BF00BF10BD10B50022028802F47F
:100FE00041520B884C8823438C882343CC8823436D
:100FF0000C8923434C8923438C892343CC89234385
:101000001A430280838B4FF2FF74234083830B8A41
:10101000038210BD2DE9F04786B005460C464FF01F
:10102000000902274FF000084FF0010A0026A88BA4
:101030004FF240010840A88302202884B5F81C9094
:101040002089022801D100BF2FE0A08810B94FF0FD
:10105000010A01E04FF0020A01A8FFF701FBE08856
:10106000B0F5007F0AD1019800EB80004000218993
:101070000902B0FBF1F0401D86B20BE04FEA4A10C6
:1010800021894843019901EB81014900B1FBF0F04E
:10109000401D86B20A20B6FBF0F606F00108A6EB6A
:1010A0000800C0F34F074FEA0828022F01DBFF2F8B
:1010B00002DD02274FF0000847EA0800E1880843F4
:1010C0002884208840F4006061880843A188084390
:1010D0006189084340EA0909A5F81C9006B0BDE8FB
:1010E000F0870021018041808180C18001814181A0
:1010F0008181C181072101827047002101804180E7
:101100008180C1800221018100214181704721B18C
:10111000028842F04002028004E002884FF6BF736A
:101120001A400280704721B1828B42F48062828330
:1011300004E0828B4FF6FF331A408283704770B50C
:10114000002400230C110125A540ABB21AB18588FB
:101150001D43858004E08588DE43B6B23540858036
:1011600070BD10B51AB183880B43838004E0838877
:10117000CC43A4B22340838010BD818170470146D7
:1011800088897047A1F57E42FF3A04D0028842F474
:101190008072028004E002884FF6FF631A400280EA
:1011A000704721B1828842F00402828004E0828884
:1011B0004FF6FB731A408280704702884FF2FF732C
:1011C0001A40028002880A4302807047018841F475
:1011D00080510180704721B1028842F400520280A0
:1011E00004E002884DF6FF731A4002807047024601
:1011F0000020012901D0108B00E0908A7047014641
:10120000088A7047B1F5804F04D1028842F48042C9
:10121000028004E002884BF6FF731A400280704798
:101220000246002013890B4201D0012000E000207B
:101230007047CA4302817047F0B50246002000247F
:101240000023002501F00F070126BE40B4B20B11A8
:1012500001269E40B3B2968806EA03051689264207
:1012600002D00DB1012000E00020F0BD10B5002239
:1012700001F00F040123A3409AB2D343038110BDB0
:1012800000C8FFBF00210020434A126842F48032A8
:10129000414B1A6000BF404A126802F40030491CFA
:1012A00010B9B1F5A06FF6D13B4A126812F4003FB5
:1012B00001D0012000E00020012843D1374A126804
:1012C00042F01002354B1A601A46126822F00302EF
:1012D0001A601A46126842F002021A602E4A5268D8
:1012E0002D4B5A601A4652685A601A46526842F4A8
:1012F00080625A601A46526822F47C125A601A467A
:10130000526842F4E8125A601A46126842F080723B
:101310001A6000BF204A126812F0007FFAD01E4AFD
:10132000526822F003021C4B5A601A46526842F07F
:1013300002025A6000BF184A526802F00C02082AE2
:10134000F9D101E000BFFEE7704710B5FFF79AFF43
:1013500010BD10B51048006840F001000E4908604B
:10136000084640680E4908400B4948600846006836
:101370000C490840084908600846006820F48020AD
:1013800008600846406820F4FE004860002088603D
:10139000FFF7DBFF10BD00000010024000200240FC
:1013A0000000FFF8FFFFF6FE704708488047084935
:1013B00081F3088807480047FEE7FEE7FEE7FEE7FF
:1013C000FEE7FEE7FEE7FEE7FEE7FEE7A9130008FB
:1013D000F81C00203101000845F25552FD4B1A60FF
:1013E0001A46506091604AF6AA221A604CF6CC4226
:1013F0001A6070474AF6AA20F6490860704708B597
:10140000F548C06940F01000F349C86140F2F3109C
:10141000F2498885472008850846808940F0010008
:1014200088810846808940F040008881084600880D
:1014300040F00100088036208DF8000000208DF873
:10144000010003208DF8020001208DF8030068469A
:10145000FFF7E3F908BD08B501217C20FFF76DF91E
:101460004FF48070ADF8000010208DF803000120CB
:101470008DF802006946DA48FEF7CCFE4FF4807121
:10148000D748FEF772FF0E20ADF8000004208DF85B
:1014900003006946D248FEF7BDFE0320ADF8000008
:1014A00004208DF803006946CE48FEF7B3FE40F2F3
:1014B000C730ADF8000010208DF8030001208DF832
:1014C00002006946C848FEF7A5FE40F2C731C6488B
:1014D000FEF74BFF3820ADF8000004208DF8030024
:1014E0006946C148FEF796FE4FF47070ADF80000F3
:1014F00010208DF8030001208DF802006946BB48DA
:10150000FEF788FE4FF47071B848FEF72EFF4FF4D7
:101510007070ADF8000004208DF803006946B348F0
:10152000FEF778FE7E20ADF8000010208DF8030055
:1015300001208DF802006946AD48FEF76BFE7E2162
:10154000AB48FEF712FF4FF4FF40ADF80000042057
:101550008DF803006946A648FEF75CFE08BD1CB581
:10156000FFF7F7FEFFF777FF01F000F801F010FC3E
:1015700002F0E2FA02F0DAF804F050FFFFF73FFF62
:1015800040219948FEF7F1FE80219748FEF7EDFED5
:101590004FF480719448FEF7E8FE4FF400719248D2
:1015A000FEF7E3FE4FF480718D48FEF7DEFE9149B1
:1015B00009684FF47A72B1FBF2F0B0F1807F01D389
:1015C00001211CE020F07F41491E4FF0E0225161D3
:1015D00000BF5117002905DA0F210901864A0B23A4
:1015E000D15404E00F210901844A5317D15400BF9C
:1015F00000214FF0E022916107211161002109B122
:1016000000BFFEE7032200217D4801F0ACF8022272
:10161000D1027C4801F0A7F806224FF40051684639
:1016200001F0A1F89DF800007749086008460068BD
:10163000000208609DF801000968084372490860CB
:1016400008460068000208609DF802000968084327
:101650006D49086008460068000208609DF80300B4
:1016600009680843684908609DF8044024029DF811
:1016700005000443601C84B220128DF80400E0B21F
:101680008DF80500022242F2040101A801F008F9D8
:101690001CBDFFF764FF06F0F7F804F082FE06F0C9
:1016A00003F95AA006F0BAF9B52005F0E7FF8FE07C
:1016B000FFF7A0FE01F0AEFA03F0A6FE01F010FC69
:1016C00002F0C1FC02F0F2F840F271210420FFF7B1
:1016D00083FE05F0D6FF06F025F8514800680A2879
:1016E00014D900204E4908604E49087000BF4E488A
:1016F000006800F4E0604D4940EA010000F1040098
:101700004FF0E021C1F80C0D00BF00BF05F0B3FFA2
:10171000B42817D204213648FEF729FE08213448A0
:10172000FEF723FE10213248FEF71FFE202130482D
:10173000FEF71BFE52203E4908703E4800783E49A5
:10174000087031E03D48008810F4805F16D0102109
:101750002748FEF70CFE04212548FEF706FE082167
:101760002348FEF702FE20212148FEF7FEFD582007
:101770003149087044202E49087015E008211C48A2
:10178000FEF7F5FD04211A48FEF7EFFD1021184879
:10179000FEF7EBFD20211648FEF7E7FD582026490D
:1017A00008705420224908702548008820B98021FB
:1017B0000D48FEF7DCFD641C21480088B0F5FA7F77
:1017C00003D180210848FEF7D0FD0A2C00D1012466
:1017D0006EE70000003000400010024000100040A2
:1017E00000080140000C01400010014000140140BD
:1017F00000180140207D000818ED00E000E400E042
:10180000160000201900002078000020CED8CED885
:10181000CED8A3ACD6D8C6F4C0B2210D0A000000C1
:101820008C000020740300200CED00E00000FA059D
:101830001B0000208A00002089000020A602002052
:101840005400002008B501214FF0C050FEF782FF80
:101850000120FFF7DCFA0420FFF764FBA0F5254127
:10186000A53930D0FFF72CFB0120FEF7D7FE00BFD3
:101870004120FEF73FFE0028FAD04FF48070FEF7BB
:10188000E6FE0120FEF7E9FEFFF765FAFFF75CFAD6
:1018900001210846FFF7F4F9FFF756FA48F208006D
:1018A000FFF72AFAFFF750FA4AF2A5510420FFF792
:1018B00034FB012012490870FFF746FA6FF005006B
:1018C000FFF70DFA09E0FFF746FAFFF73DFA0121AD
:1018D0000846FFF7D5F9FFF737FAFEF76BFF03204D
:1018E0008DF8000001208DF8010000208DF8020025
:1018F00001208DF803006846FEF78FFF08BD000049
:1019000056000020704700BFFEE700BFFEE700BFA3
:10191000FEE700BFFEE770477047704708B5FF4815
:101920000068401CFD490860FD480078401CFC49E7
:10193000087008460078052815D100200870F9487D
:10194000007810F0010F04D0F7480068401CF649F9
:101950000860F648007810F0010F04D0F4480068E1
:10196000401CF3490860F148007810F0020F04D0E1
:10197000F0480068401CEF490860EF48007810F01C
:10198000010F04D0ED480068401CEC490860EA48AB
:101990000078012808D0EA480078022804DBE948EA
:1019A0000068401CE7490860E7480068401CE649B9
:1019B0000860E6480068401CE4490860E2480068A6
:1019C0004FF46161B0FBF1F201FB1200C8B9DE48CF
:1019D0000068000E8DF80000DB480068000C8DF8F0
:1019E0000100D9480068000A8DF80200D648006856
:1019F000C0B28DF803000422D102684600F050FF07
:101A000000BFD348007801282FD1D2480078401C6D
:101A1000D0490870084600780A2813DBC6480078C9
:101A200010F0010F0ED100200870C9490870012183
:101A3000C948FFF720F8012240F22551C648FFF7B8
:101A400026F812E0C34800780A280EDB0020C149BE
:101A50000870BF4908700121BF48FFF70CF8012248
:101A600040F22551BC48FFF712F8BC480068401C02
:101A7000BA49086005F0F0FD01F0E9FDB8480088BA
:101A8000401CB7490880084600881E2807DBB54877
:101A9000007820B9002008801220B2490870B248AE
:101AA000007801280CD1B1480078401CAF4908707B
:101AB00008460078032803DB00200870AA49087054
:101AC0004021AB48FEF744FC20B14021A848FEF776
:101AD0004EFC03E04021A648FEF747FC08BD10B5C8
:101AE00000F0E5FF05F09DFEA2480088401CA149DA
:101AF000088008460088B0F57A7F03D1002008806E
:101B0000FFF70CFF9C480078401C9B490870084672
:101B10000078322803DB0020087001F086FD97482A
:101B2000007810F0100F04D095480078401C9449BC
:101B300008709448007810F0100F04D09248007894
:101B4000401C9149087010BD10B59048008A10F0F3
:101B5000010F01D005F037F94FF6FE708B4908826E
:101B600010BD10B540F225518948FFF752F808B36F
:101B70008248007840F010008049087000208049B9
:101B800008708348FEF7E6FFC1B282480278007809
:101B9000401C804B1870804881548048007810F0B9
:101BA000010F07D07A48FEF7D5FF044601467C486E
:101BB000FEF7CCFF40F227717548FFF72AF808B10D
:101BC00001F052F910BD10B540F225517548FFF7EC
:101BD00020F898B17348FEF7BDFFC4B2204602F06A
:101BE00045F86E48007810F0040F07D06D48FEF7F6
:101BF000B1FF044601466A48FEF7A8FF40F227718C
:101C00006848FFF706F820B101F0EEFF00205449C4
:101C1000088010BD10B540F225514F48FEF7F9FF7E
:101C200098B14D48FEF796FFC4B2204601F0CEFDB4
:101C30005A48007810F0080F07D04748FEF78AFF8F
:101C4000044601465648FEF781FF40F2277142489C
:101C5000FEF7DFFF08B105F0CFFC10BD10B540F274
:101C600025514F48FEF7D5FF30B14D48FEF772FFC2
:101C7000C4B2204604F044FC40F227714848FEF705
:101C8000C8FF08B104F018FC10BD08B50120FFF72B
:101C900087F8002841D00120FFF793F81F4800681B
:101CA000401C1E4908601E480078401C1C490870F2
:101CB00008460078052815D10020087019480078DA
:101CC00010F0010F04D018480068401C1649086045
:101CD0001648007810F0010F04D015480068401C29
:101CE000134908601148007810F0020F04D0114821
:101CF0000068401C0F4908600F48007810F0010F81
:101D000004D00E480068401C0C4908600A4800785E
:101D1000012850D00A48007846E0E6E07003002031
:101D200092000020D102002064000020A0020020C8
:101D30007000002074000020DF0200206C000020F2
:101D4000740300208C000020780000209400002004
:101D5000DD020020DE020020004C00409800002040
:101D600090000020E4020020E1020020E2020020B6
:101D700000100140540000209C000020D3020020ED
:101D8000CB020020DA020020DC020020001000401C
:101D900000380140CA0200207B1400205C030020B0
:101DA0000050004000480040022804DB4F48006813
:101DB000401C4E4908604E480068401C4C49086071
:101DC0004C480068401C4B490860494800684FF483
:101DD0006161B0FBF1F201FB1200C8B94448006830
:101DE000000E8DF8000042480068000C8DF80100DC
:101DF0003F480068000A8DF802003D480068C0B204
:101E00008DF803000422D102684600F049FD00BFAE
:101E10003948007801282FD138480078401C3749CC
:101E20000870084600780A2813DB3548007810F05F
:101E3000010F0ED1002008702F4908700121314890
:101E4000FEF719FE012240F225512E48FEF71FFE33
:101E500012E02A4800781E280EDB0020274908706F
:101E60002549087001212748FEF705FE012240F2AE
:101E700025512448FEF70BFE23480068401C2249E8
:101E8000086005F0E9FB01F0E2FB20480088401CF7
:101E90001E490880084600881E2807DB1C48007879
:101EA00020B90020088012201949087019480078CC
:101EB00001280CD118480078401C174908700846C2
:101EC0000078032803DB00200870124908704021C5
:101ED0001248FEF73DFA20B140211048FEF747FABC
:101EE00003E040210D48FEF740FA08BD8C000020B9
:101EF0007800002094000020DD020020DE02002097
:101F0000DF020020004C00409800002090000020DC
:101F1000E4020020E1020020E20200200010014063
:101F20001EB5FF4AB0FBF2F23032D2B28DF800207B
:101F3000FB4AB0FBF2F302FB1302FA4BB2FBF3F2E3
:101F40003032D2B28DF80120F54AB0FBF2F302FB39
:101F50001302F44BB2FBF3F403FB1420F24AB0FB80
:101F6000F2F23032D2B28DF80220EF4AB0FBF2F337
:101F700002FB1302ED4BB2FBF3F23032D2B28DF81A
:101F80000320E94AB0FBF2F302FB1302E74BB2FB7A
:101F9000F3F403FB1420E64AB0FBF2F23032D2B283
:101FA0008DF80420E24AB0FBF2F302FB130242F286
:101FB0001073B2FBF3F23032D2B28DF80520DC4A56
:101FC000B0FBF2F302FB130242F21073B2FBF3F424
:101FD00003FB14204FF47A72B0FBF2F23032D2B22B
:101FE0008DF806204FF47A72B0FBF2F302FB130275
:101FF0006423B2FBF3F23032D2B28DF807204FF4F3
:102000007A72B0FBF2F302FB13026423B2FBF3F427
:1020100003FB14200A22B0FBF2F23032D2B28DF868
:1020200008200A22B0FBF2F302FB13023032D2B2D4
:102030008DF80920002105E01DF80120BD4B5A5400
:102040004A1CD1B20929F7DD0D22BA4B9A720A2235
:10205000DA720C22B84B1A701EBD2DE9F04304460B
:102060000B4617464FF0FF0CE0460AE014F8015B00
:1020700085EA0C02B14DAD5C85EA080CB04D15F84F
:1020800002803D00A7F10106B7B2EFD148EA0C206B
:102090000546C61700EB165631130A2903DB01F17A
:1020A0003705E9B202E001F13005E9B219700546E1
:1020B0004FEAE07900EB19594FEA2939A0EB0936CC
:1020C0004FEAE67906EB1969C9F307210A2903DB10
:1020D00001F13705E9B202E001F13005E9B25D1C1A
:1020E0002B46297006464FEAE07900EB19594FEA72
:1020F0002939A0EB09354FEAE57905EB19694FEA73
:102100002929A5EB09291FFA89F00546C61700EB16
:102110001676C6F307110A2903DB01F13705E9B288
:1021200002E001F13005E9B25D1C2B46297005463D
:10213000C61700EB16763611A0EB0616F1B20A2987
:1021400003DB01F13705E9B202E001F13005E9B244
:102150005D1C2B462970BDE8F08370B502460B4626
:10216000FF24FF2509E012F8010B80EA04017348FF
:10217000405C80EA05047248455C1800A3F1010642
:10218000B3B2F0D145EA042070BD10B5642291FBD2
:10219000F2F302FB13120A2392FBF3F230320270C5
:1021A000642291FBF2F302FB13120A2392FBF3F475
:1021B00003FB14223032D3B2421C1046137010BD00
:1021C00010B5574AB0FBF2F302FB1302554BB2FBBA
:1021D000F3F403FB1420544AB0FBF2F302FB1302A6
:1021E000524BB2FBF3F403FB1420514AB0FBF2F262
:1021F00030320A704E4AB0FBF2F302FB130242F295
:102200001073B2FBF3F23032D3B24A1C1146137092
:10221000474AB0FBF2F302FB130242F21073B2FB27
:10222000F3F403FB14204FF47A72B0FBF2F2303275
:10223000D3B24A1C114613704FF47A72B0FBF2F31A
:1022400002FB13026423B2FBF3F23032D3B24A1C16
:10225000114613704FF47A72B0FBF2F302FB1302D3
:102260006423B2FBF3F403FB14200A22B0FBF2F266
:102270003032D3B24A1C114613700A22B0FBF2F37B
:1022800002FB13023032D3B24A1C1146137010BD48
:1022900001460A2903DA01F13000C0B27047102963
:1022A00003DA01F13700C0B2F8E70120F6E710B514
:1022B00002460B461A48B2FBF0F0C4B22046FFF7C4
:1022C000E7FF18701648B2FBF0F100FB112015492A
:1022D000B0FBF1F0C4B22046FFF7DAFF591C0B4601
:1022E00008701048B2FBF0F100FB11200E49B0FB62
:1022F000F1F0C4B22046FFF7CBFF591C0B46087023
:102300000948B2FBF0F100FB11200849B0FBF1F0E5
:10231000C4B22046FFF7BCFF591C0B46087011E001
:1023200000CA9A3B00E1F5058096980040420F00F4
:10233000A08601007C130020D4020020A000002011
:10234000A00100208748B2FBF0F100FB1120864974
:10235000B0FBF1F0C4B22046FFF79AFF591C0B46C0
:1023600008708148B2FBF0F100FB112042F21071BD
:10237000B0FBF1F0C4B22046FFF78AFF591C0B46B0
:10238000087042F21070B2FBF0F100FB11204FF424
:102390007A71B0FBF1F0C4B22046FFF779FF591C07
:1023A0000B4608704FF47A70B2FBF0F100FB11207D
:1023B0006421B0FBF1F0C4B22046FFF769FF591C5D
:1023C0000B4608706420B2FBF0F100FB11200A21DB
:1023D000B0FBF1F0C4B22046FFF75AFF591C0B4680
:1023E00008700A20B2FBF0F100FB1120C4B22046B5
:1023F000FFF74EFF591C0B46087010BDF0B50346A1
:102400000D46002605E013F8017B7818C1B2701C58
:10241000C6B2281FB042F6DC481CC1B2C843C1B2E4
:102420000846CF1701EB17773A110A2A03DB02F1AE
:102430003700C2B202E002F13000C2B20846CF1744
:1024400001EB17773F11A1EB0717FCB20A2C03DB56
:1024500004F13700C4B202E004F13000C4B21878CD
:10246000904204D15878A04201D10120F0BD002053
:10247000FCE710B542F2107290FBF2F302FB13027C
:102480004FF47A7392FBF3F403FB1422642392FB60
:10249000F3F230320A7042F2107290FBF2F302FB58
:1024A00013024FF47A7392FBF3F403FB14226423B8
:1024B00092FBF3F403FB14220A2392FBF3F2303273
:1024C000D3B24A1C114613700A2290FBF2F302FBAE
:1024D00013023032D3B24A1C1146137010BD30B50E
:1024E00002460B464FF6FF70002112E0555C684033
:1024F00000240AE010F0010F04D048F2084585EAF4
:10250000600000E04010651CECB2082CF2DB4D1CB2
:10251000E9B29942EADB30BD30B5034600240AE057
:1025200018780D78A84202D15B1C491C01E00020FC
:1025300030BD601CC4B29442F2DB0120F8E70246D1
:1025400000230BE01078202804DB10787E2801DCC3
:10255000521C01E000207047581CC3B28B42F1DBD3
:102560000120F8E740420F00A086010000B587B0C7
:10257000012141F20400FEF7E0F8E020ADF804008C
:1025800018208DF8070003208DF8060001A94448A3
:10259000FDF740FE1020ADF804008DF8070001A9FA
:1025A0003F48FDF737FE10213D48FDF7DEFE0020D5
:1025B000ADF808004FF48270ADF80A000020ADF8C5
:1025C0000C000220ADF80E000120ADF81000400212
:1025D000ADF812003820ADF814000020ADF8160058
:1025E0000720ADF8180002A92E48FEF7F5FC0121DE
:1025F0002C48FEF78CFD07B000BD10B504462948F5
:1026000000884FF6C7710840264908801CB9084663
:102610000088088017E0012C06D12248008840F08D
:102620001000204908800EE0022C06D11D480088C9
:1026300040F018001B49088005E01A48008840F067
:1026400038001849088001211648FEF760FD10BDCA
:1026500070B50546002405E0601CC4B2C82C01DD3D
:10266000002070BD02210F48FEF7DAFD0028F3D0EC
:1026700029460C48FEF781FD002400BF01210948CE
:10268000FEF7CEFD0028F9D0601CC4B2C82C01DDD5
:102690000020E6E70348FEF772FDC0B2E1E7000064
:1026A000000801400030014010B500241021BF484F
:1026B000FDF75DFE0520FFF7CBFFFF20FFF7C8FF0A
:1026C00004461021B948FDF750FE204610BD10B554
:1026D00004461021B548FDF74AFE0120FFF7B8FF78
:1026E0002046FFF7B5FF1021B048FDF73EFE10BDB4
:1026F00010B51021AD48FDF73AFE0620FFF7A8FF00
:102700001021AA48FDF731FE10BD10B51021A748D1
:10271000FDF72DFE0420FFF79BFF1021A348FDF7D6
:1027200024FE10BD10B500241021A048FDF71FFEA7
:102730009020FFF78DFF0020FFF78AFF0020FFF7B2
:1027400087FF0020FFF784FFFF20FFF781FF44EAA7
:102750000024FF20FFF77CFF044310219348FDF77E
:1027600004FE204610BD2DE9F04106460C461746F2
:1027700010218E48FDF7FBFD0320FFF769FFC4F32E
:102780000740FFF765FFC4F30720FFF761FFE0B2E2
:10279000FFF75EFF002505E0FF20FFF759FF7055AA
:1027A000681C85B2BD42F7DB10218048FDF7DDFDD6
:1027B000BDE8F08110B500BFFFF776FF00F0010023
:1027C0000128F9D010BD2DE9F04106460C46174608
:1027D000FFF78EFF10217548FDF7C9FD0220FFF7B6
:1027E00037FFC4F30740FFF733FFC4F30720FFF7B9
:1027F0002FFFE0B2FFF72CFF002504E0705DFFF72C
:1028000027FF681C85B2BD42F8DB10216748FDF741
:10281000ACFDFFF7CFFFBDE8F0812DE9F0410746A1
:102820000E461446F0B2C0F58075AC4200DC254679
:1028300012E02A4631463846FFF7C5FFAC4200D1C8
:102840000BE02F442E44601B84B2B4F5807F02DD80
:102850004FF4807500E02546EBE700BFBDE8F0814E
:1028600010B504462403FFF743FFFFF7A3FF102131
:102870004E48FDF77CFD2020FFF7EAFEC4F3074039
:10288000FFF7E6FEC4F30720FFF7E2FEE0B2FFF732
:10289000DFFE10214548FDF768FDFFF78BFF10BDF7
:1028A0002DE9F04781460F4616464FEA1738C7F321
:1028B0000B0ACAF58054A64200DC344644E04FEAD5
:1028C00008314FF480523A48FFF74DFF002508E0E9
:1028D0000AEB05003649085CFF2800D003E0681CBD
:1028E00085B2A542F4DB00BFA54216DA4046FFF7E9
:1028F000B7FF002507E019F8050005EB0A012C4A8F
:102900005054681C85B2A542F5DB4FEA08314FF4FC
:1029100080522748FFF781FF04E0224639464846A7
:10292000FFF77BFFA64200D10FE008F101084FF04E
:10293000000AA1442744301B86B2B6F5805F02DD51
:102940004FF4805400E03446B9E700BFBDE8F0879B
:1029500010B5FFF7CDFEFFF72DFF10211348FDF74F
:1029600006FDC720FFF774FE10211048FDF7FDFC9F
:10297000FFF720FF10BD10B510210C48FDF7F7FC44
:10298000B920FFF765FE10210848FDF7EEFC10BDE9
:1029900010B510210548FDF7EAFCAB20FFF758FE03
:1029A00010210248FDF7E1FC10BD000000080140C5
:1029B0007C03002010B5C148008810F0010F0BD136
:1029C000BF48008810F0010F06D0BE48008840F0D4
:1029D0000100BC4908800FE0B848008810F0010FE2
:1029E0000AD0B748008810F0010F05D1B64800881A
:1029F00040F00100B4490880B048008810F4805FBE
:102A00000BD1AF48008810F4805F06D0AD48008835
:102A100040F48050AB4908800FE0A848008810F4CB
:102A2000805F0AD0A648008810F4805F05D1A648D0
:102A3000008840F48050A4490880A4480078012808
:102A400018D10020A14908700220A1490870A148AE
:102A500000780978884229D04D209F4908709FA0AE
:102A600004F0DCFF1A20A5490870994800789949BC
:102A700008701BE0A2480078012817D10020A04967
:102A800008700320924908709248007809788842BB
:102A90000CD04120904908709AA004F0BFFF1C2080
:102AA000964908708A4800788A49087010BD10B5A8
:102AB00008219C48FDF73FFC20B99B480078401C4A
:102AC0009949087002219948FDF735FC012805D184
:102AD00097480078401C9649087004E095480078B3
:102AE000401C9449087008219048FDF724FC18B94F
:102AF00001209149087002E00120904908700421EA
:102B00008A48FDF718FC20B98D480078401C8C4994
:102B100008706B480088694908808A480078401C22
:102B20008849087008460078322872DB7E480078B1
:102B3000232806DB6248008840F0010060490880D5
:102B400006E05F4800884FF6FE7108405C49088047
:102B50007748007823281DDB0020754908707549E7
:102B6000087079480068401C774908600846016889
:102B700076A004F053FF7448006850280AD3002060
:102B80007149086001205149087000205C490870B3
:102B9000744908606748007823281FDB00206549D6
:102BA0000870634908706F480068401C6D490860F0
:102BB000084601686CA004F031FF002062490860FB
:102BC00068480068B0F5FA6F08D300203F490870E4
:102BD00001204B490870002062490860584800787D
:102BE000232806DB3648008840F4805034490880AA
:102BF00006E0334800884EF6FF71084030490880EF
:102C0000FFF7D8FE0020484908704D4908704D492B
:102C1000087010BD10B5394800783849087000B107
:102C200010BD2848008810F0010F18D025480088F2
:102C30004FF6FE7108402349088052480068401C46
:102C40005049086050480068401C4F490860012006
:102C50002A49087004F00BFD00F0B5FCE0E71948C4
:102C6000008810F4805F10D0164800884EF6FF717F
:102C70000840144908804548007840F00100434965
:102C8000087009201D490870CAE70F48008810F431
:102C9000805F10D00C4800884EF6FF7108400A494A
:102CA00008803A48007800F0FE00384908700A2091
:102CB00012490870B4E700BFB2E70000A802002084
:102CC000A6020020AA020020AC020020B9020020C7
:102CD000AF020020AE0200208A000020BFD8D6C676
:102CE000C6F7CAE4C8EBB5CDB5E7C6BDA3ACCAD636
:102CF000B6AFC4A3CABD0D0A00000000E402002064
:102D0000BA020020BFD8D6C6C6F7CAE4C8EBB8DFFF
:102D1000B5E7C6BDA3ACD7D4B6AFC4A3CABD0D0A30
:102D20000000000000100140A20200200008014045
:102D3000B7020020B8020020B2020020B302002037
:102D4000A5020020A1020020C0020020646F6F7263
:102D50004F70656E436F756E746572203D202564FB
:102D60000D0A0000BC02002026262626646F6F7222
:102D7000436C6F7365436F756E746572203D2025DB
:102D8000640D0A006000002068000020A0020020FE
:102D900000B587B001210420FDF7CFFC0121880395
:102DA000FDF7CBFC4FF40070ADF8080003208DF860
:102DB0000A0018208DF80B0002A9F748FDF72AFA3F
:102DC0004FF48060ADF8080004208DF80B0002A9D4
:102DD000F148FDF71FFA4FF4614003900020ADF871
:102DE0001000ADF81200ADF81400ADF818000C207A
:102DF000ADF8160003A9E948FDF7CFFD012240F226
:102E00002551E648FDF743FE0121E448FDF733FE76
:102E100025208DF8040000208DF805008DF80600AF
:102E200001208DF8070001A8FDF7F7FC07B000BDF1
:102E300010B50020DA490870DA48007800F0F00098
:102E4000D8490870D64802780078401CD44B1870D6
:102E5000D548815CD148FDF779FE012240F2277107
:102E6000CE48FDF714FE10BD10B5CD4802780078AD
:102E7000401CCB4B1870CC48815CC848FDF766FEFF
:102E8000C7480078C949097888420ED1002240F22B
:102E90002771C248FDF7FBFD0020C1490870C148F9
:102EA000007840F00100BF49087010BD10B5C0485F
:102EB0000078032813DB0020BD490870B94800786A
:102EC00000F00F00B74908700846007840F0200075
:102ED0000870002240F22551B048FDF7D8FD10BD22
:102EE00010B5FFF7E3FFB348007800B110BDB2485A
:102EF000007810F0020F31D0AF48007820F00200C7
:102F0000AD4908700846007840F0090008700024B8
:102F100008E0AA48005DAA4908553021A748015594
:102F2000601CC4B2A7480078C01FA042F1DC00209A
:102F3000A3490855A148401E0078A34908700A20FB
:102F40009E49491E087008209A4908709FA004F005
:102F500065FD9B49A5A004F061FD4BE09648007813
:102F600010F0040F15D09448007820F00400924926
:102F700008700846007840F00100087001208D4973
:102F800008709CA004F04AFD8D4998A004F046FD0D
:102F900030E08948007810F0100F2BD0002406E0B4
:102FA0008849A01D085C86490855601CC4B2854844
:102FB0000078C01FA042F3DC0020814908558148F9
:102FC0000078C01F804908707B48007820F010000E
:102FD000794908700846007840F001000870082020
:102FE000744908708DA004F019FD75497FA004F0A4
:102FF00015FD00BF6B48007810F0200F7ED06E48A2
:10300000007810F0010F7AD06E48007807285CDC59
:103010008A480088401C894908800846008844F294
:10302000506188420EDB04F026FBB0F5617F09D3C6
:1030300083480078012806D100208049088081A0BB
:1030400004F0ECFCADE285A004F0E8FC5C4967A06C
:1030500004F0E4FC00207949088004F008FB002417
:1030600005E05748015D82480155601CC4B25648CE
:1030700000788442F5DB00217D48015552480078F4
:103080007B49491E0870084690F8280040F001006E
:1030900081F828004848007820F00100464908706F
:1030A000002074490862084690F8280040F00100AA
:1030B00081F828007048006818B907203D49087059
:1030C0006FE214203B4908706BE26C4800780838C6
:1030D000C1B23C48801DFFF732FA002859D00020C9
:1030E0005649088037480078C01F37490978884218
:1030F00050D1354802783349891D01E061E2AAE1E7
:103100002F48FFF709FA18B100205D49088048E20E
:103110002C480078C01FC2B22A49891D2748FFF7F2
:10312000FBF9A8B356480088401C5549088008465A
:1031300000880A2886DB00200880002406E0214958
:10314000A01D095C1D480155601CC4B21D480078D3
:10315000C01FA042F3DC1B480078C01F1749491E5E
:103160000870444890F8280020F00100414981F897
:103170002800002008621048007840F002000E4944
:1031800008703D48006830B114200A49087008E210
:103190007CE010E192E075E0000801400038014059
:1031A000D5020020D30200207C130020D40200208E
:1031B000CB020020E4020020D1020020C114002034
:1031C0002D0000207B1400202C000020B5B1C7B0DA
:1031D000D3D0C4A3BEDFA3ACB5ABB6C1C8A1B5BD47
:1031E000D0C2C4A3BEDF0D0A0000000025730D0A83
:1031F00000000000B5B1C7B0C3BBD3D0C4A3BEDFCD
:10320000A3ACB6C1C8A1B5BDC9CFD2BBB4CECFE0C7
:10321000CDACB5C4C4A3BEDF0D0A0000B5B1C7B0C4
:10322000C3BBD3D0C4A3BEDFA3ACB6C1C8A1B5BDD8
:10323000D0C2C4A3BEDF0D0A00000000CC020020F3
:103240005B030020CAD6B6AFCAE4C8EBB5C4C4A3BA
:10325000BEDFB2BBC7E5C1E30D0A0000C4A3BEDFF9
:10326000B1BBD2C6BFAAC1CBC1CBC1CB0D0A000036
:10327000ED1400201815002068000020CA0200206C
:10328000CE0200200720FD4908708AE10120FC4998
:103290000880002406E0FB49A01D095CFA4801559E
:1032A000601CC4B2F848401E0078A042F3DCF54828
:1032B0000078C01FF449491E087072E1F248401EB0
:1032C0000178F0480078C01F81425CD1ED48007859
:1032D000C01FC2B2EB49891DEB48FFF71DF9A8B327
:1032E000E7480088401CE6490880084600880A280C
:1032F000CBDBE648007840F00200E4490870002487
:1033000006E0E049A01D095CDF480155601CC4B21D
:10331000DC480078C01FA042F3DCDA480078C01F08
:10332000D949491E0870DA4890F8280020F00100B9
:10333000D74981F8280000200862D1490880D54883
:10334000006820B11420CD4908702AE103E007206D
:10335000CA49087025E10120C9490880002406E017
:10336000C849A01D095CC8480155601CC4B2C648C4
:10337000401E0078A042F3DCC2480078C01FC2495A
:10338000491E08700DE10120BD490880002406E0B7
:10339000BC49A01D095CBC480155601CC4B2BA48B8
:1033A000401E0078A042F3DCB6480078C01FB64942
:1033B000491E0870F5E0B8480088401CB6490880EE
:1033C00008460188B5A004F029FBB348008844F200
:1033D00050618842B9DB04F04EF9B0F5617FB4D397
:1033E000B6480078012807D10020AB490880AFF229
:1033F000AC1004F013FBD4E00020A749088004F0CF
:1034000036F9002405E0AE48015DAE480155601C68
:10341000C4B2AD4800788442F5DBAB480078A949D6
:10342000491E0870084690F8280040F0010081F815
:1034300028009648007820F00100944908709448CC
:1034400090F8280040F00100914981F828001420EC
:103450008A490870A5E08B480078072892DD9B48D0
:1034600000780838C1B28748801DFFF768F8002847
:103470004CD00020884908809248401E017881483D
:103480000078C01F814243D17E480078C01FC2B27D
:103490007C49891D8B48FFF73FF8C0B3002408E042
:1034A0008848005D86490855302186480155601CD2
:1034B000C4B274480078C01FA042F1DC8148401EAD
:1034C00000788149087000207D4908557048006ADD
:1034D0007F4908606E48006A6E49086000206C49A8
:1034E00008620A207749491E0870694890F8280048
:1034F00020F00100664981F828006448007840F017
:1035000004006249087015205C49087049E0FFE733
:103510005D48401E02785B49891D401CFEF7FCFF98
:1035200040B357480088401C554908800846008829
:103530000A2836DB00200880554890F8280020F043
:103540000100534981F82800002008624F480078A4
:1035500040F010004D4908705D48006808B34D48C0
:10356000006818B11420454908701AE00720434943
:10357000087016E0012042490880002406E0414915
:10358000A01D095C40480155601CC4B23E48401E65
:103590000078A042F3DC3B480078C01F3A49491E3E
:1035A00008704C48007800F00F004A49087000206D
:1035B00046490870012240F225514748FDF767FA55
:1035C00000BF00BF92E4324890F8280010F0010FCD
:1035D00004D02F48006A401C2D490862704710B57E
:1035E00045203E4908707220487088706F20C8706E
:1035F00072200871212048710D2088710A20C8713D
:10360000082037490870FFF713FC3248007800F0B3
:103610000F003049087000202C490870012240F248
:1036200025512D48FDF733FA10BD10B504202B4964
:1036300008700020487001208870DB20C8704B2083
:103640000871052026490870FFF7F2FB10BD0F48EE
:10365000007810F0080F10D022480078401C214953
:10366000087008460078032807DB00200870074828
:10367000007820F00800054908707047E402002037
:10368000CE0200207B140020C1140020D1020020B3
:103690001815002068000020CC020020B6C1C8A187
:1036A000B5BDC2D2C2EB4E4F545F55524649445F3E
:1036B000646174613D25750D0A0000005B03002004
:1036C0002D000020ED1400202C000020CA02002054
:1036D00060000020D3020020003801407C1300204D
:1036E000D4020020D20200203EB502460B460C2B2D
:1036F00014D10BA531CD8DE8310000210AE01078FE
:103700001DF80140A04201D1521C01E001203EBD44
:10371000481CC1B20C29F2DB0020F8E70120F6E7D3
:103720004343433030384430322D312000B587B028
:1037300001211020FDF701F80121C804FDF70AF866
:103740004FF48060ADF8080003208DF80A001820BF
:103750008DF80B0002A9E348FCF75CFD4FF4006014
:10376000ADF8080004208DF80B0002A9DD48FCF735
:1037700051FD4FF4165003900020ADF81000ADF845
:103780001200ADF81400ADF818000C20ADF81600CA
:1037900003A9D548FDF701F9012240F22551D2488D
:1037A000FDF775F90121D048FDF765F934208DF852
:1037B000040000208DF805008DF8060001208DF82A
:1037C000070001A8FDF729F807B000BD10B50446B1
:1037D000C648007840F00800C4490870C448017821
:1037E0000078401CC24A1070C24844540A2C3AD196
:1037F00010460078801EBF49085C0D2855D1104640
:103800000078801EC1B2BB48FEF799FEF8B1B848F7
:1038100000780C281BD1B548007800F00F00B349A0
:1038200008700846007840F0200008700020B24977
:1038300008700120B1490870002240F22551AA48C1
:10384000FDF725F90021A848FDF715F92DE0A74857
:10385000007800F00F00A54908700020A649087004
:10386000A349087021E0A248007820280EDB9F4879
:10387000007800F00F009D4908700846007840F07D
:103880004000087000209A4908700EE09A480078BD
:1038900064280ADB9548007800F00F00934908700F
:1038A0000020954908709249087010BD10B59448E1
:1038B000007800B110BD9348007810F0020F1ED0C0
:1038C0009049097821F002018E4A11701146097859
:1038D00041F001011170002005E08B49095C8B4A21
:1038E0001154411CC8B28A4909788842F5DB8849DD
:1038F0000978884A11700A21874A1170DAE78148ED
:10390000007810F0040F1ED07E49097821F00401E0
:103910007C4A11701146097841F0010111700020B4
:1039200005E07949095C794A1154411CC8B27849CB
:1039300009788842F5DB76490978764A11700A21C0
:10394000754A1170C3E06948007810F0200FF9D073
:103950006C48007810F0010F75D065480078801E23
:103960006C490978884237D16A48027861496748CA
:10397000FEF7D2FD50B16348007820F001006149A4
:103980000870664800786449087097E05D490978D6
:1039900021F001015B4A11700121614A11705F49F8
:1039A00009785D4A1170002005E05249095C564AC9
:1039B0001154411CC8B24E490978891E8142F4DC79
:1039C0004B490978891E524A11700121554A1170DC
:1039D0000021554A117071E04A49097821F001012E
:1039E000484A11701146097841F0020111704F499F
:1039F0000978312903D134214D4A117006E04B4931
:103A00000978322902D13121494A117017213C4AE3
:103A10001170002005E03749095C3B4A1154411CF4
:103A2000C8B233490978891E8142F4DC30490978EB
:103A3000891E374A117001213A4A117000213A4A11
:103A400011703BE0FFE73B490968D9B1002005E070
:103A50002849095C2C4A1154411CC8B224490978F0
:103A6000891E8142F4DC22490978891E284A117096
:103A70002449097841F00401224A11701721204A93
:103A800011701AE0002005E01A49095C1F4A115420
:103A9000411CC8B216490978891E8142F4DC1449D8
:103AA0000978891E1B4A11701649097841F00101F5
:103AB000144A11700A21184A117000BF0B4800788F
:103AC00020F020000949087000200949087000BF53
:103AD000F0E60C48007810F0010F01D0012070478B
:103AE0000020FCE700100140004C0040DA020020FA
:103AF000DB02002062150020DC020020DD02002035
:103B0000E4020020DF0200208215002021000020B6
:103B1000E002002020000020590300205A0300206A
:103B2000E3020020E1020020E2020020EB0200207C
:103B3000ED0200206800002000B587B001212020A0
:103B4000FCF7FBFD01218804FCF704FE0121084677
:103B5000FCF7F3FD0121FB48FCF72BFC4FF48070D0
:103B6000ADF8080003208DF80A0018208DF80B002E
:103B700002A9F548FCF74EFB4FF40070ADF80800C1
:103B800004208DF80B0002A9EF48FCF743FB4FF42B
:103B9000165003900020ADF81000ADF81200ADF8FB
:103BA0001400ADF818000C20ADF8160003A9E74882
:103BB000FCF7F3FE012240F22551E448FCF767FFD1
:103BC0000121E248FCF757FF27208DF80400002070
:103BD0008DF805008DF8060001208DF8070001A87A
:103BE000FCF71BFE07B000BD10B5D9480078D949D5
:103BF000097888420FDB002240F22771D348FCF796
:103C000046FF0020D2490870D348007800F0FE003B
:103C1000D14908700AE0CE4802780078401CCC4BAD
:103C20001870CE48815CC948FCF790FF10BD10B5F4
:103C30000020C7490870C848007800F0F000C64965
:103C400008700846007840F001000870C14801780B
:103C5000C24803F009FE3A21BC48FCF777FF012275
:103C600040F22771B948FCF712FF10BD10B50446A9
:103C700003F04DFD03F0F4FDB748007810F0100F8D
:103C80003BD0B74801780078401CB54A1070B54861
:103C900044540A2C18D110460078801EB149085CA3
:103CA0000D2832D1AC48007800F00F00AA49087006
:103CB0000846007840F020000870002240F22551AC
:103CC000A248FCF7E4FE20E0A5480078FF281CDBB2
:103CD000A148007800F00F009F490870084600785E
:103CE00040F04000087000209D490870002240F21A
:103CF00025519648FCF7CBFE07E03A2C05D19648B3
:103D0000007840F010009449087010BD002004E0D5
:103D10000021944A1154411CC8B22A28F8DB70478C
:103D200070B59048C0793038642148438D49097A8C
:103D3000303901EB810100EB41008A49497A08449E
:103D40003038C5B287484079572802D077287ED1CD
:103D500000BF052D04D0062D4BD0072D48D193E090
:103D60007C207E490870002405E07F48015D7B4A85
:103D7000601C1154C4B2032CF7DB7C207749087116
:103D8000002406E07948015D744A601D1154601CEE
:103D9000C4B2022CF6DB7C207049C87174480078EC
:103DA00008727C204872572088727C20C8723020AC
:103DB00008734873352088737C20C87316206549C2
:103DC000087008460078801F82B208460078801F7D
:103DD000624BC1181846FEF740F90D205F4908757F
:103DE0000A204875FFF723FF03F077FCFFF78EFFEB
:103DF00079E07C2059490870002405E05A48015DAB
:103E0000564A601C1154C4B2032CF7DB7C20534982
:103E10000871002406E05548015D504A601D1154A8
:103E2000601CC4B2022CF6DB7C204C49C87150489F
:103E3000007808727C204872572088727C20C872F3
:103E4000302008734873362088737C2000E04CE0F3
:103E5000C87316203F49087008460078801F82B258
:103E600008460078801F3D4BC1181846FEF7F5F84C
:103E70000D203A4908750A204875FFF7D8FE03F06F
:103E80003AFCFFF743FF2EE0002407E004F10B00AB
:103E90003449085C37490855601CC4B2482CF5DB2E
:103EA0007C202E4908703020487088703720C870F8
:103EB0007C2008710B202749087008460078801F75
:103EC00082B208460078801F244BC1181846FEF7BE
:103ED000C4F80D20214948720A208872FFF7A7FE16
:103EE000FFF714FF00BF00BF00BF00BF70BD10B5DB
:103EF00045201A4908707220487088706F20C87079
:103F0000722008710D2048710A208871072011491C
:103F10000870FFF78CFE10BD10B5002405E01348B3
:103F2000005D0E490855601CC4B2022CF7DB0D2061
:103F30000A4988700A20C870042006490870FFF7F3
:103F400076FE10BD3000140000140140004800400F
:103F5000EA020020E9020020E50200209615002078
:103F6000E60200209516002016000020190000200F
:103F70001B0000209417002010B5002405E0F8482D
:103F8000005DF8490855601CC4B2032CF7DB0D2016
:103F9000F449C8700A2008710520F3490870FFF73A
:103FA00046FE10BD10B50446EE492046FEF708F95E
:103FB0000D20EC4988710A20C8710820EA49087070
:103FC000FFF735FE10BD10B5002405E0E748005DA1
:103FD000E4490855601CC4B2E54800788442F5DB2A
:103FE0000D20E049E24A127888540A21DD4AE0486F
:103FF0000078401C1154DE480078801CDA490870B3
:10400000FFF715FE10BD10B5002405E0D948005D8E
:10401000D4490855601CC4B2D74800788442F5DB07
:104020000D20D049D44A127888540A21CD4AD2486A
:104030000078401C1154D0480078801CCA49087090
:10404000FFF7F5FD10BD70B5CC48007810F0200FDB
:104050006FD0CB4881784078303800EB800001EB9E
:1040600040003038C5B2C6480078522804D05328E2
:1040700072D0572871D1CDE0262D6FD2DFE805F040
:10408000C313181D2D32373E454CC3C3C3C3C3C32E
:10409000C3C3C3C3535A60666F757B81878D939981
:1040A0009FA5ABB1B7BDFFF767FFFFF72FFEAFE0EE
:1040B000FFF732FFFFF72AFEAAE0B2480078A949CD
:1040C00008700D2048700A2088700320A6490870E7
:1040D000FFF7ADFDFFF71AFE9AE0FFF794FFFFF739
:1040E00015FE95E0FFF76FFFFFF710FE90E0A64882
:1040F0000068FFF757FFFFF709FE89E0A348006853
:10410000FFF750FFFFF702FE82E0A1480068FFF7CB
:1041100049FFFFF7FBFD7BE09E480068FFF742FF89
:10412000FFF7F4FD74E001209B490870FFF7EEFDF6
:104130006EE0AEE1022098490870FFF7E7FD67E006
:10414000032095490870FFF7E1FD61E004209249E2
:104150000870FFF7DBFD5BE05EE186E153E00520E0
:104160008D490870FFF7D2FD52E006208A49087099
:10417000FFF7CCFD4CE0132087490870FFF7C6FD20
:1041800046E0082084490870FFF7C0FD40E00920A0
:1041900081490870FFF7BAFD3AE00A207E490870AD
:1041A000FFF7B4FD34E00B207B490870FFF7AEFD4C
:1041B0002EE00C2078490870FFF7A8FD28E00D20BC
:1041C00075490870FFF7A2FD22E00E2072490870C1
:1041D000FFF79CFD1CE00F206F490870FFF796FD6C
:1041E00016E010206C490870FFF790FD10E01120D8
:1041F00069490870FFF78AFD0AE0132066490870D4
:10420000FFF784FD04E0FFF772FEFFF77FFD00BFBC
:1042100000BF2BE1082D70D2DFE805F0F70414246D
:1042200027CACFD4032200215548C01CFEF738FB13
:10423000032200214A48FEF796FAFFF79DFEFFF79A
:1042400065FDE7E00222D1024D48C01CFEF728FBC5
:104250000222D1025148FEF786FAFFF75DFEFFF712
:1042600055FDD7E0FFF752FDD4E04D48007810F03F
:10427000010F55D04B480078401F3D4909788842CE
:104280002ED13B4802783E49C91C3848FEF744F914
:10429000012806D10020424908700E203E490870CE
:1042A0005AE000203E4908700846007840F00200BD
:1042B00008700E2038490870002406E03049E01CE0
:1042C000085C39490855601CC4B236480078401F64
:1042D000A042F3DC33480078401F344908703BE0CB
:1042E00000202F4908700846007840F0020008704E
:1042F0000E2029490870002407E086E02049E01CD0
:10430000085C29490855601CC4B226480078401F43
:10431000A042F3DC23480078401F244908701BE0CA
:104320001F48007840F001001D490870002406E095
:104330001349E01C085C0D490855601CC4B21948BB
:104340000078401FA042F3DC16480078401F08495F
:1043500008700D2010490870FFF7D8FC5AE00000E3
:104360001600002096150020E90200202100002000
:10437000200000202D0000202C000020E50200205D
:10438000951600201B000020600000206400002023
:10439000680000206C000020E402002019000020CA
:1043A000DF020020E602002082150020E00200204B
:1043B00003F093F9FFF7AAFC2CE003F09CF9FFF758
:1043C000A5FC27E0FF48407930384FF47A71484324
:1043D000FC498979303901EBC10202EB011100EB94
:1043E0008101F848C079303800EB800001EB4000D3
:1043F000F449097A08443038F349086008460068EF
:10440000F2490860FFF782FC04E0FFF770FDFFF758
:104410007DFC00BF00BF29E0012D04D0022D14D087
:10442000032D1BD117E000BFE948006800F4E060ED
:10443000E84940EA010000F104004FF0E021C1F832
:104440000C0D00BFFFF762FC0DE06420E24908702C
:10445000FFF75CFC07E0FFF759FC04E0FFF747FDBE
:10446000FFF754FC00BF00BF00E000BF00BFFFF734
:1044700057FCDA48007800F00F00D8490870002097
:10448000D7490870012240F22551D648FCF7FFFABF
:1044900000BF70BD7C21D44A1170002005E0D349D3
:1044A0000A5CD14B411C5A54C8B20328F7DB7C216B
:1044B000CD4A1171032007E0C11ECD4A525CCA4BA0
:1044C000811C5A54411CC8B20528F5DB7C21C64A20
:1044D000D171C849097811727C215172C649097895
:1044E00091727C21D172D173704710B5FFF7D2FF62
:1044F000C24800781630642190FBF1F201FB1200F3
:104500000A2190FBF1F03030B7490874BB480078BD
:1045100016300A2190FBF1F201FB12003030B24953
:1045200048747C208874002407E0B548015D04F1DC
:104530001300AD4A1154601CC4B2B04800788442E4
:10454000F3DB7C21AD4800781330A74A1154AB4807
:104550000078143081189D480068FDF731FE7C21F9
:10456000A64800781A30A04A1154A44800781B309D
:104570008118A4480068FDF723FE7C219F4800783D
:104580002130994A1154A04841789C480078223043
:1045900011549D48017899480078233011547C21AA
:1045A0009648007824301154984841789348007810
:1045B00025301154954801789048007826301154E0
:1045C0007C218E480078273011548C4800782E309A
:1045D0008F49087008460078801F82B2084600782C
:1045E000801F814BC1181846FDF737FD0D21884803
:1045F0000078801E7C4A11540A2185480078401EAC
:104600001154FFF714FB10BD10B5FFF743FF7B48B3
:104610000078001D642190FBF1F201FB12000A21D9
:1046200090FBF1F030307049087474480078001D38
:104630000A2190FBF1F201FB120030306A49487404
:104640007C208874002406E0312104F11300664ABE
:104650001154601CC4B2694800788442F4DB7C21A8
:10466000664800781330604A1154644800781A3064
:104670006749087008460078801F82B208460078B3
:10468000801F594BC1181846FDF7E7FC0D21604803
:104690000078801E544A11540A215D480078401E5B
:1046A0001154FFF7C4FA10BD10B5FFF7F3FE5348DD
:1046B0000078001D642190FBF1F201FB12000A2139
:1046C00090FBF1F03030484908744C480078001DE8
:1046D0000A2190FBF1F201FB12003030424948748C
:1046E0007C208874002407E04A48015D04F113002F
:1046F0003D4A1154601CC4B2404800788442F3DB48
:104700007C213E4800781330374A11543B480078EA
:104710001A303F49087008460078801F82B2084668
:104720000078801F304BC1181846FDF796FC0D210C
:1047300037480078801E2C4A11540A2134480078EA
:10474000401E1154FFF773FA10BD10B5FFF7A2FE1B
:104750002A480078001D642190FBF1F201FB120051
:104760000A2190FBF1F030301F490874234800788B
:10477000001D0A2190FBF1F201FB120030301A49B2
:1047800048747C208874002407E02348015D04F10C
:104790001300154A1154601CC4B218480078801FD9
:1047A000A042F2DC7C21154800780D300E4A1154ED
:1047B0001248007814301649087008460078801FA7
:1047C00082B22BE0951600206000002068000020D7
:1047D0000CED00E00000FA05E4020020E5020020F4
:1047E000E602002000480040961500201600002038
:1047F000190000201B0000201C00002020000020C9
:10480000210000206C000020EB020020ED020020BF
:10481000E90200204E0300204A03002008460078E9
:10482000801FFF4BC1181846FDF717FC0D21FD48EE
:104830000078801EFA4A11540A21FA480078401E76
:104840001154FFF7F4F910BD10B5FFF723FEF64839
:104850000078001D642190FBF1F201FB12000A2197
:1048600090FBF1F03030EE490874EF480078001DFD
:104870000A2190FBF1F201FB12003030E849487444
:104880007C208874002407E0E848015D04F11300EF
:10489000E34A1154601CC4B2E3480078801FA04270
:1048A000F2DC7C21E04800780D30DD4A1154DE480E
:1048B00000781430DB49087008460078801F82B207
:1048C00008460078801FD64BC1181846FDF7C5FB77
:1048D0000D21D4480078801ED14A11540A21D148B4
:1048E0000078401E1154FFF7A2F910BD10B5FFF774
:1048F000D1FDCD480078001D642190FBF1F201FB51
:1049000012000A2190FBF1F03030C5490874C64806
:104910000078001D0A2190FBF1F201FB12003030FB
:10492000BF4948747C208874002407E0C048015DBA
:1049300004F11300BA4A1154601CC4B2BA4800789A
:10494000801FA042F2DC7C21B74800780D30B44AC9
:104950001154B54800781430B24908700846007800
:10496000801F82B208460078801FAD4BC1181846E0
:10497000FDF773FB0D21AB480078801EA84A115447
:104980000A21A8480078401E1154FFF750F910BDC5
:1049900010B5FFF77FFDA4480078001D642190FB4F
:1049A000F1F201FB12000A2190FBF1F030309C493A
:1049B00008749D480078001D0A2190FBF1F201FB6C
:1049C00012003030964948747C208874002407E037
:1049D0009848015D04F11300914A1154601CC4B25F
:1049E00091480078801FA042F2DC7C218E4800783C
:1049F0000D308B4A11548C48007814308949087066
:104A000008460078801F82B208460078801F844BD9
:104A1000C1181846FDF721FB0D2182480078801E41
:104A20007F4A11540A217F480078401E1154FFF735
:104A3000FEF810BD10B5FFF72DFD7B480078001D76
:104A4000642190FBF1F201FB12000A2190FBF1F0CE
:104A500030307349087474480078001D0A2190FBB7
:104A6000F1F201FB120030306D4948747C208874EB
:104A7000002407E07048015D04F11300684A1154F6
:104A8000601CC4B268480078801FA042F2DC7C2120
:104A9000654800780D30624A11546348007814303C
:104AA0006049087008460078801F82B20846007886
:104AB000801F5B4BC1181846FDF7CFFA0D215948EE
:104AC0000078801E564A11540A2156480078401E2C
:104AD0001154FFF7ACF810BD10B5FFF7DBFC5248DE
:104AE0000078001D642190FBF1F201FB12000A2105
:104AF00090FBF1F030304A4908744B480078001DB3
:104B00000A2190FBF1F201FB120030304449487455
:104B10007C208874002407E04848015D04F11300FC
:104B20003F4A1154601CC4B23F480078801FA04225
:104B3000F2DC7C213C4800780D30394A11543A4867
:104B4000007814303749087008460078801F82B218
:104B500008460078801F324BC1181846FDF77DFAD1
:104B60000D2130480078801E2D4A11540A212D480D
:104B70000078401E1154FFF75AF810BD10B5FFF72A
:104B800089FC29480078001D642190FBF1F201FBAB
:104B900012000A2190FBF1F03030214908742248BC
:104BA0000078001D0A2190FBF1F201FB1200303069
:104BB0001B4948747C208874002407E02048015D6C
:104BC00004F11300164A1154601CC4B21648007850
:104BD000801FA042F2DC7C21134800780D30104A7F
:104BE00011541148007814300E49087008460078B6
:104BF000801F82B208460078801F094BC1181846F2
:104C0000FDF72BFA0D2107480078801E044A115445
:104C10000A2104480078401E1154FFF708F810BD1F
:104C200096150020E9020020200000204603002005
:104C3000420300203E0300203A03002036030020F8
:104C40003203002010B5FFF725FCFF480078001D57
:104C5000642190FBF1F201FB12000A2190FBF1F0BC
:104C60003030FA490874F8480078001D0A2190FB9A
:104C7000F1F201FB12003030F44948747C20887452
:104C8000002407E0F248015D04F11300EF4A1154DB
:104C9000601CC4B2EC480078801FA042F2DC7C218A
:104CA000E94800780D30E94A1154E748007814309B
:104CB000E849087008460078801F82B208460078EC
:104CC000801FE24BC1181846FDF7C7F90D21E148D6
:104CD0000078801EDD4A11540A21DE480078401E0B
:104CE0001154FEF7A4FF10BD10B5FFF7D3FBD64853
:104CF0000078001D642190FBF1F201FB12000A21F3
:104D000090FBF1F03030D1490874CF480078001D95
:104D10000A2190FBF1F201FB12003030CB494874BC
:104D20007C208874002407E0CB48015D04F1130067
:104D3000C64A1154601CC4B2C3480078801FA04208
:104D4000F2DC7C21C04800780D30C04A1154BE48C6
:104D500000781430BF49087008460078801F82B27E
:104D600008460078801FB94BC1181846FDF775F941
:104D70000D21B8480078801EB44A11540A21B54864
:104D80000078401E1154FEF752FF10BD10B5FFF71A
:104D900081FBAD480078001D642190FBF1F201FB1E
:104DA00012000A2190FBF1F03030A8490874A6489F
:104DB0000078001D0A2190FBF1F201FB1200303057
:104DC000A24948747C208874002407E0A348015D50
:104DD00004F113009D4A1154601CC4B29A48007833
:104DE000801FA042F2DC7C21974800780D30974A62
:104DF0001154954800781430964908700846007898
:104E0000801F82B208460078801F904BC118184658
:104E1000FDF723F90D218F480078801E8B4A11542D
:104E20000A218C480078401E1154FEF700FF10BD87
:104E300010B5FFF72FFB84480078001D642190FB1C
:104E4000F1F201FB12000A2190FBF1F030307F49B2
:104E500008747D480078001D0A2190FBF1F201FBE7
:104E600012003030794948747C208874002407E0AF
:104E70007B48015D04F11300744A1154601CC4B2F4
:104E800071480078801FA042F2DC7C216E480078D7
:104E90000D306E4A11546C48007814306D4908701A
:104EA00008460078801F82B208460078801F674B52
:104EB000C1181846FDF7D1F80D2166480078801E0C
:104EC000624A11540A2163480078401E1154FEF7CB
:104ED000AEFE10BD10B5FFF7DDFA5B480078001D8F
:104EE000642190FBF1F201FB12000A2190FBF1F02A
:104EF00030305649087454480078001D0A2190FB50
:104F0000F1F201FB12003030504948747C20887463
:104F1000002407E05348015D04F113004B4A11548B
:104F2000601CC4B248480078801FA042F2DC7C219B
:104F3000454800780D30454A1154434800781430F4
:104F40004449087008460078801F82B208460078FD
:104F5000801F3E4BC1181846FDF77FF80D213D48D4
:104F60000078801E394A11540A213A480078401EC0
:104F70001154FEF75CFE10BD10B5FFF78BFA3248F6
:104F80000078001D642190FBF1F201FB12000A2160
:104F900090FBF1F030302D4908742B480078001D4B
:104FA0000A2190FBF1F201FB1200303027494874CE
:104FB0007C208874002407E02B48015D04F1130075
:104FC000224A1154601CC4B21F4800780838A0421D
:104FD000F2DC7C211C4800780B301C4A11541A4822
:104FE000007812301B49087008460078801F82B292
:104FF00008460078801F154BC1181846FDF72DF89C
:105000000D2114480078801E104A11540A211148BD
:105010000078401E1154FEF70AFE10BD10B5FFF7D0
:1050200039FA09480078001D642190FBF1F201FB78
:1050300012000A2190FBF1F0303004490874024854
:105040000078001D0A2111E02000002096150020A4
:105050002E030020E90200202A030020260300205E
:10506000220300201E0300201C03002090FBF1F20D
:1050700001FB12003030FF4948747C208874002402
:1050800007E0FD48015D04F11300FA4A1154601C69
:10509000C4B2FA4800780838A042F2DC7C21F74814
:1050A00000780B30F34A1154F44800781230F44978
:1050B000087008460078801F82B208460078801F7A
:1050C000EC4BC1181846FCF7C8FF0D21EC480078DE
:1050D000801EE84A11540A21E9480078401E115404
:1050E000FEF7A5FD10BD10B5FFF7D4F9E54800782F
:1050F000092803D0E34800780A2806D1DD49103199
:10510000E1480068FDF75CF805E0DA491031DF4856
:105110000068FDF755F87C20D64988751D20D849D0
:10512000087008460078801F82B208460078801F09
:10513000D04BC1181846FCF790FF0D21D0480078DD
:10514000801ECC4A11540A21CD480078401E1154CB
:10515000FEF76DFD10BD10B5FFF79CF9C74800784C
:105160001630642190FBF1F201FB12000A2190FB42
:10517000F1F03030BF490874C048007816300A2179
:1051800090FBF1F201FB12003030BA4948747C20E8
:105190008874002407E0BE48015D04F11300B54A9D
:1051A0001154601CC4B2B548007816308442F2DB5A
:1051B0007C21B24800782930AE4A1154AF480078BB
:1051C0003030AF49087008460078801F82B2084628
:1051D0000078801FA74BC1181846FCF73EFF0D2131
:1051E000A7480078801EA34A11540A21A4480078D9
:1051F000401E1154FEF71BFD10BD10B5FFF74AF914
:105200009E4800781630642190FBF1F201FB1200F9
:105210000A2190FBF1F030309649087497480078E5
:1052200016300A2190FBF1F201FB12003030914957
:1052300048747C208874002407E09648015D04F1DE
:1052400013008C4A1154601CC4B28C48007884420C
:10525000F3DB7C21894800781330864A11540024FE
:1052600007E08D48015D04F11E00824A1154601C64
:10527000C4B2824800788442F3DB7C207D4981F807
:1052800028002F207E49087008460078801F82B2CF
:1052900008460078801F774BC1181846FCF7DDFEE2
:1052A0000D2177480078801E724A11540A217448F3
:1052B0000078401E1154FEF7BAFC10BD10B5FFF780
:1052C000E9F8764800781030642190FBF1F201FB98
:1052D00012000A2190FBF1F03030664908746F48E3
:1052E000007810300A2190FBF1F201FB12003030FF
:1052F000604948747C208874002407E06848015D98
:1053000004F113005B4A1154601CC4B26348007876
:105310008442F3DB7C21614800781330554A1154F4
:105320005E480078143081185E480068FCF748FF3A
:105330007C215A4800781A304E4A11545748007858
:105340001B30811858480068FCF73AFF7C2153480D
:1053500000782130474A1154504800782830484995
:10536000087008460078801F82B208460078801FC7
:10537000404BC1181846FCF770FE0D2140480078DC
:10538000801E3C4A11540A213D480078401E1154A9
:10539000FEF74DFC10BD7C21364A1170002005E05F
:1053A00042490A5C334B411C5A54C8B20328F7DB0C
:1053B0007C21304A1171032007E0C11E3C4A525C37
:1053C0002C4B811C5A54411CC8B20528F5DB7C21AA
:1053D000284AD1713749097811727C2151723649B6
:1053E000097891727C21D172002007E033490A5C70
:1053F00000F10C011F4B5A54411CC8B20328F5DBC5
:105400007C211C4AD173704710B52D48007810F0EC
:10541000010F40F0DE861B48007808B102F017FA51
:1054200018480078182872D01BDC80F0CC86DFE8A2
:1054300010F07600790058019C01E0014C02530203
:105440005A029602A902B602C502D202E102F50290
:1054500014034603530361032F0431043F044B0438
:105460006904242871D03ADCA0F119000B28DCD2A1
:1054700028E00000961500201A03002020000020DC
:10548000E9020020E40200207000002074000020E7
:10549000FA02002021000020F00200202C00002051
:1054A0002D00002060000020640000201600002075
:1054B000190000201B0000201C0000201D000020FF
:1054C000E5020020DFE810F075049404A204B204A1
:1054D000C204D204E904FF040C05220538052A2879
:1054E0007ED00ADCA0F1250005289ED2DFE810F06E
:1054F000510568057F059505AC052D2800F000864F
:1055000006DC2B286DD02C2840F05D86F8E3F8E30C
:105510002E2800F00C866428F6D100F047BE00BFAC
:1055200000F056BE00BFFFF736FFF8480078F84A93
:10553000127810441F30C1B2F648FCF726FE7C20DA
:10554000F44910398874002409E0E7E3F248015D6A
:1055500004F11300EF4A103A1154601CC4B2EC4835
:1055600000788442F2DB7C2104F11300E94A103A0E
:10557000115400240AE0E948015DE5480078143040
:105580002044E44A103A1154601CC4B2DF48007849
:105590008442F0DB7C21DE4800781430DB4A12784C
:1055A0001044DC4A103A1154D94800781530D74AD3
:1055B00012781044D74A103A8118D9480068FCF78D
:1055C000FFFD7C21D24800781B30D04A127810446D
:1055D000D04A103A1154CE4800781C30CB4A01E032
:1055E000F2E3F2E312781044CA4A103A8118CD4827
:1055F0000068FCF7E5FD7C21C54800782230C34AED
:1056000012781044C34A103A1154C148007823302C
:10561000BE4A12781044BF4A103A8118C248006846
:10562000FCF7CEFD7C21BA4800782930B74A1278C1
:105630001044B84A103A1154B54800782A30B34A99
:1056400012781044B34A103A8118B8480068FCF741
:10565000B7FD7C21AE4800783030AC4A1278104457
:10566000AC4A103A1154AA4800783130A74A12784F
:105670001044A84A103A8118AD480068FCF7A0FD14
:105680007C21A34800783730A04A12781044A14A00
:10569000103A11549D4800789D49097808443E30DD
:1056A000A449087008460078801F82B20846007836
:1056B000801F984B103BC1181846FCF7CEFC0D21FB
:1056C0009C480078801E934A103A11540A21994848
:1056D0000078401E1154FEF7AAFA0020964908707F
:1056E0001EE700BFFFF757FE88480078401CC1B294
:1056F0008848801FFCF749FD002408E08748015DC9
:1057000004F10C00834A103A1154601CC4B27F4863
:1057100000788442F2DB202104F10C007D4A103A2B
:1057200011547A480078133082490870084600788E
:10573000801F82B208460078801F764B103BC1184C
:105740001846FCF78AFC0D217A480078801E714AC1
:10575000103A11540A2177480078401E1154FEF780
:1057600066FA002074490870DAE600BFFFF713FEFE
:1057700066480078401CC1B26648401EFCF705FD33
:10578000002408E06448015D04F11100614A103A08
:105790001154601CC4B25E4800788442F2DB7C2164
:1057A00004F111005B4A103A115459480078133043
:1057B0006049087008460078801F82B20846007869
:1057C000801F544B103BC1181846FCF746FC0D21B6
:1057D00058480078801E4F4A103A11540A21554803
:1057E0000078401E1154FEF722FA0020524908703A
:1057F00096E600BFFFF7CFFD44480078444A127890
:1058000010440830C1B24348801FFCF7BEFC00249E
:1058100008E04248015D04F10C003E4A103A115480
:10582000601CC4B2394800788442F2DB7C2104F168
:105830000C00384A103A115400240AE03648015D41
:10584000324800780D302044324A103A1154601C1E
:10585000C4B22F4800788442F0DB7C212B480078CA
:105860000D3020442B4A103A1154284800780E304D
:10587000204481182A480068FCF7A2FC23480078DD
:105880001A302349097808442A49087008460078E4
:10589000801F82B208460078801F1E4B103BC11843
:1058A0001846FCF7DAFB0D2122480078801E194AC1
:1058B000103A11540A211F480078401E1154FEF777
:1058C000B6F900201C4908702AE600BFFFF763FD07
:1058D00000201949087023E600BFFFF75CFD002097
:1058E000154908701CE600BF31200A4910390873B9
:1058F000487330208873FFF7E1FC002009490860F5
:10590000074908600849086000241CE020000020C6
:105910002C000020A61500202D00002021000020D2
:105920006000002064000020680000206C0000205F
:1059300070000020E9020020E40200203020F84935
:105940000855601CC4B20A2CF8DB0020F449085545
:105950000A20F44908700020F3490870E0E500BF10
:105960000020F2490860F2490860F24908603120DD
:10597000F149087348738873FFF7A0FC0020EA49D7
:105980000870CDE500BF3120EB4908734873322021
:105990008873FFF7A8FB0020E3490870C0E500BF4B
:1059A0003120E5490873487333208873FFF79BFB68
:1059B0000020E2490860DC490870B1E500BF3120F1
:1059C000DD490873487334208873FFF78CFB00208F
:1059D000D5490870FCE300BF3120D74908734873EC
:1059E00035208873FFF77FFB0020D5490860CE493A
:1059F0000870EDE300BF0020CE490860D14908607F
:105A00003120CD490873487336208873FEF76DFD49
:105A10000020CD490870C4490870D9E300BF312087
:105A2000C5490873487337208873FEF75EFD00246C
:105A300004E03020C5490855601CC4B20A2CF8DBCC
:105A40000A20C34908700020BA490860BD490860AF
:105A5000BD490870B4490870BAE300BF3120B649A7
:105A60000873487338208873FEF714FDB24910316B
:105A7000B2480068FCF7A4FB7C20AF4988751D2064
:105A8000B449087008460078801F82B20846007842
:105A9000801FA94BC1181846FCF7DFFA0D21AD484D
:105AA0000078801EA44A11540A21AA480078401E9A
:105AB0001154FEF7BCF800209B49087088E300BF32
:105AC00031209D490873487339208873FEF70DFD16
:105AD0000020954908707BE300BF31209649087388
